S01700004763634170706C69636174696F6E362E7372656356
S11300000C9434000C9451000C9451000C94510045
S11300100C9451000C9451000C9451000C94510018
S11300200C9451000C9451000C9451000C94510008
S11300300C9451000C9451000C9451000C945100F8
S11300400C9451000C9451000C9451000C945100E8
S11300500C9451000C9451000C9451000C945100D8
S11300600C9451000C94510011241FBECFEFD8E022
S1130070DEBFCDBF11E0A0E0B1E0E0E9F3E002C0F3
S113008005900D92AA30B107D9F721E0AAE0B1E0BA
S113009001C01D92A231B207E1F70E9425010C9420
S11300A0C6010C94000087B1807E87B93D9A8FEF1A
S11300B08AB984B988B18F6188B9459878940895CC
S11300C0CF93DF93CDB7DEB72A970FB6F894DEBF90
S11300D00FBECDBF9AE0E0E0F1E0DE0111960190A1
S11300E00D929A95E1F721E030E002C0220F331F10
S11300F08A95E2F725B9E1E0F0E0EC0FFD1FE60F89
S1130100F11D80818BB98FE39CE90197F1F700C061
S1130110000015B82A960FB6F894DEBF0FBECDBF07
S1130120DF91CF910895CF93DF93EC0164E670E003
S11301300E949E0180E00E9460002AE030E0CE012F
S1130140B9010E949E01C82FCB01B9010E949E01F2
S1130150682F81E00E9460006C2F82E00E946000A2
S1130160DF91CF91089581E090E020910C013091CE
S11301700D01232B11F080E090E090930D0180930A
S11301800C0108958091100190911101899744F018
S1130190459A81E090E090930B0180930A010895C1
S11301A0459810920B0110920A01089580E188B9D4
S11301B010920B0110920A01089580911001909100
S11301C01101833691053CF40196909311018093BB
S11301D010010E94C20008958091100190911101B4
S11301E0181619063CF4019790931101809310019D
S11301F00E94C200089581E090E020910E013091A8
S11302000F01232B11F080E090E090930F01809375
S11302100E01089585B1877C85B95F98809110019E
S1130220909111018F30910514F42C9A08958A311C
S1130230910514F42D9A08958432910514F45F9A6B
S1130240089589970CF42B9A08950E945300C5E0F1
S1130250D0E030990CC02FEF85ED96E0215080401E
S11302609040E1F700C00000309B0E94DD0031990E
S11302700CC02FEF88E596E0215080409040E1F7D4
S113028000C00000319B0E94EC0032990CC02FEF9B
S113029081EE94E0215080409040E1F700C00000DE
S11302A0329B0E94B30034990CC02FEF80E792E098
S11302B0215080409040E1F700C00000349B0E9430
S11302C0D60033990CC02FEF81EE94E0215080408A
S11302D09040E1F700C00000339B0E94FB00809136
S11302E00E0190910F01892B01F580910C019091E1
S11302F00D01892B99F080911001909111019C01BD
S1130300220F331F220F331F220F331F820F931F1D
S1130310BE010E949E01CB01809604C08091100111
S1130320909111010E94930002C00E940A018FE97A
S11303309FE00197F1F700C000008BCF97FB072ED9
S113034016F4009407D077FD09D00E94B20107FC8F
S113035005D03EF4909581959F4F089570956195D1
S11303607F4F0895AA1BBB1B51E107C0AA1FBB1FE7
S1130370A617B70710F0A61BB70B881F991F5A952D
S1130380A9F780959095BC01CD010895F894FFCF0D
S10D03903F065B4F666D7D077F6F2B
S9030000FC
